{
  "contractName": "Election",
  "abi": [
    {
      "inputs": [],
      "stateMutability": "nonpayable",
      "type": "constructor"
    },
    {
      "inputs": [
        {
          "internalType": "uint256",
          "name": "",
          "type": "uint256"
        }
      ],
      "name": "candidates",
      "outputs": [
        {
          "internalType": "uint256",
          "name": "id",
          "type": "uint256"
        },
        {
          "internalType": "string",
          "name": "name",
          "type": "string"
        },
        {
          "internalType": "uint256",
          "name": "voteCount",
          "type": "uint256"
        },
        {
          "internalType": "string",
          "name": "party",
          "type": "string"
        },
        {
          "internalType": "uint256",
          "name": "age",
          "type": "uint256"
        },
        {
          "internalType": "string",
          "name": "qualification",
          "type": "string"
        }
      ],
      "stateMutability": "view",
      "type": "function"
    },
    {
      "inputs": [],
      "name": "candidatesCount",
      "outputs": [
        {
          "internalType": "uint256",
          "name": "",
          "type": "uint256"
        }
      ],
      "stateMutability": "view",
      "type": "function"
    },
    {
      "inputs": [],
      "name": "currentElectionStage",
      "outputs": [
        {
          "internalType": "enum Election.PHASE",
          "name": "",
          "type": "uint8"
        }
      ],
      "stateMutability": "view",
      "type": "function"
    },
    {
      "inputs": [],
      "name": "electionAdmin",
      "outputs": [
        {
          "internalType": "address",
          "name": "",
          "type": "address"
        }
      ],
      "stateMutability": "view",
      "type": "function"
    },
    {
      "inputs": [
        {
          "internalType": "address",
          "name": "",
          "type": "address"
        }
      ],
      "name": "registeredVoters",
      "outputs": [
        {
          "internalType": "bool",
          "name": "hasVoted",
          "type": "bool"
        },
        {
          "internalType": "uint256",
          "name": "vote",
          "type": "uint256"
        },
        {
          "internalType": "bool",
          "name": "isRegistered",
          "type": "bool"
        }
      ],
      "stateMutability": "view",
      "type": "function"
    },
    {
      "inputs": [
        {
          "internalType": "enum Election.PHASE",
          "name": "x",
          "type": "uint8"
        }
      ],
      "name": "changeState",
      "outputs": [],
      "stateMutability": "nonpayable",
      "type": "function"
    },
    {
      "inputs": [
        {
          "internalType": "string",
          "name": "_name",
          "type": "string"
        },
        {
          "internalType": "string",
          "name": "_party",
          "type": "string"
        },
        {
          "internalType": "uint256",
          "name": "_age",
          "type": "uint256"
        },
        {
          "internalType": "string",
          "name": "_qualification",
          "type": "string"
        }
      ],
      "name": "addCandidate",
      "outputs": [],
      "stateMutability": "nonpayable",
      "type": "function"
    },
    {
      "inputs": [
        {
          "internalType": "address",
          "name": "voter",
          "type": "address"
        }
      ],
      "name": "registerVoter",
      "outputs": [],
      "stateMutability": "nonpayable",
      "type": "function"
    },
    {
      "inputs": [
        {
          "internalType": "uint256",
          "name": "_candidateId",
          "type": "uint256"
        }
      ],
      "name": "castVote",
      "outputs": [],
      "stateMutability": "nonpayable",
      "type": "function"
    },
    {
      "inputs": [],
      "name": "getWinner",
      "outputs": [
        {
          "internalType": "string",
          "name": "winnerName",
          "type": "string"
        },
        {
          "internalType": "uint256",
          "name": "winnerVoteCount",
          "type": "uint256"
        },
        {
          "internalType": "string",
          "name": "winnerParty",
          "type": "string"
        }
      ],
      "stateMutability": "view",
      "type": "function"
    }
  ],
  "bytecode": "0x608060405234801561001057600080fd5b50336000806101000a81548173ffffffffffffffffffffffffffffffffffffffff021916908373ffffffffffffffffffffffffffffffffffffffff16021790555060008060146101000a81548160ff0219169083600281111561009c577f4e487b7100000000000000000000000000000000000000000000000000000000600052602160045260246000fd5b0217905550611583806100b06000396000f3fe608060405234801561001057600080fd5b506004361061009e5760003560e01c80633d4e66f9116100665780633d4e66f91461014c5780633eb76b9c1461016a5780638e7ea5b214610186578063a9ff6df1146101a6578063c286d923146101d85761009e565b80630aa05677146100a3578063268f1153146100c15780632d35a8a2146100dd5780633477ee2e146100fb57806338db6dd314610130575b600080fd5b6100ab6101f4565b6040516100b89190611124565b60405180910390f35b6100db60048036038101906100d69190610f72565b610218565b005b6100e561034e565b6040516100f291906111f6565b60405180910390f35b61011560048036038101906101109190611046565b610354565b60405161012796959493929190611211565b60405180910390f35b61014a60048036038101906101459190610f49565b610528565b005b61015461066c565b6040516101619190611176565b60405180910390f35b610184600480360381019061017f9190611046565b61067f565b005b61018e6108ac565b60405161019d93929190611191565b60405180910390f35b6101c060048036038101906101bb9190610f49565b610bfa565b6040516101cf9392919061113f565b60405180910390f35b6101f260048036038101906101ed9190610f9b565b610c3e565b005b60008054906101000a900473ffffffffffffffffffffffffffffffffffffffff1681565b60008054906101000a900473ffffffffffffffffffffffffffffffffffffffff1673ffffffffffffffffffffffffffffffffffffffff163373ffffffffffffffffffffffffffffffffffffffff161461027057600080fd5b600060149054906101000a900460ff1660028111156102b8577f4e487b7100000000000000000000000000000000000000000000000000000000600052602160045260246000fd5b8160028111156102f1577f4e487b7100000000000000000000000000000000000000000000000000000000600052602160045260246000fd5b116102fb57600080fd5b80600060146101000a81548160ff02191690836002811115610346577f4e487b7100000000000000000000000000000000000000000000000000000000600052602160045260246000fd5b021790555050565b60035481565b600160205280600052604060002060009150905080600001549080600101805461037d906113b3565b80601f01602080910402602001604051908101604052809291908181526020018280546103a9906113b3565b80156103f65780601f106103cb576101008083540402835291602001916103f6565b820191906000526020600020905b8154815290600101906020018083116103d957829003601f168201915b505050505090806002015490806003018054610411906113b3565b80601f016020809104026020016040519081016040528092919081815260200182805461043d906113b3565b801561048a5780601f1061045f5761010080835404028352916020019161048a565b820191906000526020600020905b81548152906001019060200180831161046d57829003601f168201915b5050505050908060040154908060050180546104a5906113b3565b80601f01602080910402602001604051908101604052809291908181526020018280546104d1906113b3565b801561051e5780601f106104f35761010080835404028352916020019161051e565b820191906000526020600020905b81548152906001019060200180831161050157829003601f168201915b5050505050905086565b60008054906101000a900473ffffffffffffffffffffffffffffffffffffffff1673ffffffffffffffffffffffffffffffffffffffff163373ffffffffffffffffffffffffffffffffffffffff161461058057600080fd5b60008060028111156105bb577f4e487b7100000000000000000000000000000000000000000000000000000000600052602160045260246000fd5b600060149054906101000a900460ff166002811115610603577f4e487b7100000000000000000000000000000000000000000000000000000000600052602160045260246000fd5b1461060d57600080fd5b6001600260008473ffffffffffffffffffffffffffffffffffffffff1673ffffffffffffffffffffffffffffffffffffffff16815260200190815260200160002060020160006101000a81548160ff0219169083151502179055505050565b600060149054906101000a900460ff1681565b60018060028111156106ba577f4e487b7100000000000000000000000000000000000000000000000000000000600052602160045260246000fd5b600060149054906101000a900460ff166002811115610702577f4e487b7100000000000000000000000000000000000000000000000000000000600052602160045260246000fd5b1461070c57600080fd5b600260003373ffffffffffffffffffffffffffffffffffffffff1673ffffffffffffffffffffffffffffffffffffffff16815260200190815260200160002060020160009054906101000a900460ff1661076557600080fd5b600260003373ffffffffffffffffffffffffffffffffffffffff1673ffffffffffffffffffffffffffffffffffffffff16815260200190815260200160002060000160009054906101000a900460ff16156107bf57600080fd5b6000821180156107d157506003548211155b6107da57600080fd5b600160008381526020019081526020016000206002016000815480929190610801906113e5565b91905055506001600260003373ffffffffffffffffffffffffffffffffffffffff1673ffffffffffffffffffffffffffffffffffffffff16815260200190815260200160002060000160006101000a81548160ff02191690831515021790555081600260003373ffffffffffffffffffffffffffffffffffffffff1673ffffffffffffffffffffffffffffffffffffffff168152602001908152602001600020600101819055505050565b60606000606060028060028111156108ed577f4e487b7100000000000000000000000000000000000000000000000000000000600052602160045260246000fd5b600060149054906101000a900460ff166002811115610935577f4e487b7100000000000000000000000000000000000000000000000000000000600052602160045260246000fd5b1461093f57600080fd5b600060035411610984576040517f08c379a000000000000000000000000000000000000000000000000000000000815260040161097b906111d6565b60405180910390fd5b6000806000600190505b60035481116109e55782600160008381526020019081526020016000206002015411156109d257600160008281526020019081526020016000206002015492508091505b80806109dd906113e5565b91505061098e565b506000600160008381526020019081526020016000206040518060c001604052908160008201548152602001600182018054610a20906113b3565b80601f0160208091040260200160405190810160405280929190818152602001828054610a4c906113b3565b8015610a995780601f10610a6e57610100808354040283529160200191610a99565b820191906000526020600020905b815481529060010190602001808311610a7c57829003601f168201915b5050505050815260200160028201548152602001600382018054610abc906113b3565b80601f0160208091040260200160405190810160405280929190818152602001828054610ae8906113b3565b8015610b355780601f10610b0a57610100808354040283529160200191610b35565b820191906000526020600020905b815481529060010190602001808311610b1857829003601f168201915b5050505050815260200160048201548152602001600582018054610b58906113b3565b80601f0160208091040260200160405190810160405280929190818152602001828054610b84906113b3565b8015610bd15780601f10610ba657610100808354040283529160200191610bd1565b820191906000526020600020905b815481529060010190602001808311610bb457829003601f168201915b505050505081525050905080602001518160400151826060015196509650965050505050909192565b60026020528060005260406000206000915090508060000160009054906101000a900460ff16908060010154908060020160009054906101000a900460ff16905083565b60008054906101000a900473ffffffffffffffffffffffffffffffffffffffff1673ffffffffffffffffffffffffffffffffffffffff163373ffffffffffffffffffffffffffffffffffffffff1614610c9657600080fd5b6000806002811115610cd1577f4e487b7100000000000000000000000000000000000000000000000000000000600052602160045260246000fd5b600060149054906101000a900460ff166002811115610d19577f4e487b7100000000000000000000000000000000000000000000000000000000600052602160045260246000fd5b14610d2357600080fd5b60036000815480929190610d36906113e5565b91905055506040518060c0016040528060035481526020018681526020016000815260200185815260200184815260200183815250600160006003548152602001908152602001600020600082015181600001556020820151816001019080519060200190610da6929190610dff565b50604082015181600201556060820151816003019080519060200190610dcd929190610dff565b506080820151816004015560a0820151816005019080519060200190610df4929190610dff565b509050505050505050565b828054610e0b906113b3565b90600052602060002090601f016020900481019282610e2d5760008555610e74565b82601f10610e4657805160ff1916838001178555610e74565b82800160010185558215610e74579182015b82811115610e73578251825591602001919060010190610e58565b5b509050610e819190610e85565b5090565b5b80821115610e9e576000816000905550600101610e86565b5090565b6000610eb5610eb0846112b8565b611287565b905082815260208101848484011115610ecd57600080fd5b610ed8848285611371565b509392505050565b600081359050610eef8161150f565b92915050565b600081359050610f0481611526565b92915050565b600082601f830112610f1b57600080fd5b8135610f2b848260208601610ea2565b91505092915050565b600081359050610f4381611536565b92915050565b600060208284031215610f5b57600080fd5b6000610f6984828501610ee0565b91505092915050565b600060208284031215610f8457600080fd5b6000610f9284828501610ef5565b91505092915050565b60008060008060808587031215610fb157600080fd5b600085013567ffffffffffffffff811115610fcb57600080fd5b610fd787828801610f0a565b945050602085013567ffffffffffffffff811115610ff457600080fd5b61100087828801610f0a565b935050604061101187828801610f34565b925050606085013567ffffffffffffffff81111561102e57600080fd5b61103a87828801610f0a565b91505092959194509250565b60006020828403121561105857600080fd5b600061106684828501610f34565b91505092915050565b61107881611304565b82525050565b61108781611316565b82525050565b6110968161135f565b82525050565b60006110a7826112e8565b6110b181856112f3565b93506110c1818560208601611380565b6110ca816114ea565b840191505092915050565b60006110e26017836112f3565b91507f4e6f2063616e6469646174657320617661696c61626c650000000000000000006000830152602082019050919050565b61111e81611355565b82525050565b6000602082019050611139600083018461106f565b92915050565b6000606082019050611154600083018661107e565b6111616020830185611115565b61116e604083018461107e565b949350505050565b600060208201905061118b600083018461108d565b92915050565b600060608201905081810360008301526111ab818661109c565b90506111ba6020830185611115565b81810360408301526111cc818461109c565b9050949350505050565b600060208201905081810360008301526111ef816110d5565b9050919050565b600060208201905061120b6000830184611115565b92915050565b600060c0820190506112266000830189611115565b8181036020830152611238818861109c565b90506112476040830187611115565b8181036060830152611259818661109c565b90506112686080830185611115565b81810360a083015261127a818461109c565b9050979650505050505050565b6000604051905081810181811067ffffffffffffffff821117156112ae576112ad6114bb565b5b8060405250919050565b600067ffffffffffffffff8211156112d3576112d26114bb565b5b601f19601f8301169050602081019050919050565b600081519050919050565b600082825260208201905092915050565b600061130f82611335565b9050919050565b60008115159050919050565b6000819050611330826114fb565b919050565b600073ffffffffffffffffffffffffffffffffffffffff82169050919050565b6000819050919050565b600061136a82611322565b9050919050565b82818337600083830152505050565b60005b8381101561139e578082015181840152602081019050611383565b838111156113ad576000848401525b50505050565b600060028204905060018216806113cb57607f821691505b602082108114156113df576113de61148c565b5b50919050565b60006113f082611355565b91507fffffffffffffffffffffffffffffffffffffffffffffffffffffffffffffffff8214156114235761142261142e565b5b600182019050919050565b7f4e487b7100000000000000000000000000000000000000000000000000000000600052601160045260246000fd5b7f4e487b7100000000000000000000000000000000000000000000000000000000600052602160045260246000fd5b7f4e487b7100000000000000000000000000000000000000000000000000000000600052602260045260246000fd5b7f4e487b7100000000000000000000000000000000000000000000000000000000600052604160045260246000fd5b6000601f19601f8301169050919050565b6003811061150c5761150b61145d565b5b50565b61151881611304565b811461152357600080fd5b50565b6003811061153357600080fd5b50565b61153f81611355565b811461154a57600080fd5b5056fea264697066735822122081aa214aa982da4a293ce7106191bbc9d18f5498f43cedf452d9e0304ff21df464736f6c63430008000033",
  "immutableReferences": {},
  "source": "// SPDX-License-Identifier: MIT\npragma solidity >=0.4.22 <0.9.0;\n\ncontract Election {\n    enum PHASE {\n        reg,\n        voting,\n        done\n    }\n\n    address public electionAdmin;\n    PHASE public currentElectionStage;\n\n    constructor() {\n        electionAdmin = msg.sender;\n        currentElectionStage = PHASE.reg;\n    }\n\n    struct Candidate {\n        uint id;\n        string name;\n        uint voteCount;\n        string party;\n        uint age;\n        string qualification;\n    }\n\n    struct Voter {\n        bool hasVoted;\n        uint vote;\n        bool isRegistered;\n    }\n\n    mapping(uint => Candidate) public candidates;\n    mapping(address => Voter) public registeredVoters;\n    uint public candidatesCount;\n\n    modifier onlyAdmin() {\n        require(msg.sender == electionAdmin);\n        _;\n    }\n\n    modifier validState(PHASE x) {\n        require(currentElectionStage == x);\n        _;\n    }\n\n    function changeState(PHASE x) public onlyAdmin {\n        require(x > currentElectionStage);\n        currentElectionStage = x;\n    }\n\n    function addCandidate(\n        string memory _name,\n        string memory _party,\n        uint _age,\n        string memory _qualification\n    ) public onlyAdmin validState(PHASE.reg) {\n        candidatesCount++;\n        candidates[candidatesCount] = Candidate(\n            candidatesCount,\n            _name,\n            0,\n            _party,\n            _age,\n            _qualification\n        );\n    }\n\n    function registerVoter(\n        address voter\n    ) public onlyAdmin validState(PHASE.reg) {\n        registeredVoters[voter].isRegistered = true;\n    }\n\n    function castVote(uint _candidateId) public validState(PHASE.voting) {\n        require(registeredVoters[msg.sender].isRegistered);\n        require(!registeredVoters[msg.sender].hasVoted);\n        require(_candidateId > 0 && _candidateId <= candidatesCount);\n        candidates[_candidateId].voteCount++;\n        registeredVoters[msg.sender].hasVoted = true;\n        registeredVoters[msg.sender].vote = _candidateId;\n    }\n\n    function getWinner()\n        public\n        view\n        validState(PHASE.done)\n        returns (\n            string memory winnerName,\n            uint winnerVoteCount,\n            string memory winnerParty\n        )\n    {\n        require(candidatesCount > 0, \"No candidates available\");\n\n        uint winningVoteCount = 0;\n        uint winningCandidateId = 0;\n\n        for (uint i = 1; i <= candidatesCount; i++) {\n            if (candidates[i].voteCount > winningVoteCount) {\n                winningVoteCount = candidates[i].voteCount;\n                winningCandidateId = i;\n            }\n        }\n\n        Candidate memory winner = candidates[winningCandidateId];\n        return (winner.name, winner.voteCount, winner.party);\n    }\n}\n",
  "sourcePath": "/Users/dangdat/StudioProjects/gombe_election/contracts/Election.sol",
  "compiler": {
    "name": "solc",
    "version": "0.8.0+commit.c7dfd78e.Emscripten.clang"
  },
  "schemaVersion": "3.4.16",
  "updatedAt": "2024-08-19T22:37:56.136Z",
  "devdoc": {
    "kind": "dev",
    "methods": {},
    "version": 1
  },
  "userdoc": {
    "kind": "user",
    "methods": {},
    "version": 1
  }
}